:020000041000EA
:1000000058240020790F00107D590010650F001052
:10001000650F0010650F0010650F0010650F0010D0
:10002000000000000000000000000000311000107F
:10003000650F001000000000DD0F0010252F0010DC
:10004000AD110010AD110010AD110010AD11001078
:10005000AD110010AD110010AD110010AD11001068
:10006000AD110010AD110010AD110010AD11001058
:10007000AD110010AD110010AD110010AD11001048
:10008000AD110010AD110010AD110010AD11001038
:10009000AD110010AD110010AD110010AD11001028
:1000A000AD110010AD110010AD110010AD11001018
:1000B000AD110010AD110010AD110010AD11001008
:1000C000AD110010AD110010AD110010AD110010F8
:1000D000AD110010AD110010AD110010AD110010E8
:1000E000AD110010AD110010AD110010AD110010D8
:1000F000AD110010AD110010AD110010AD110010C8
:10010000AD110010AD110010AD110010AD110010B7
:10011000D3DEFFFF420121100302000000000010A7
:0C012000FF03000000000000793512AB66
:1001300080F0004002E000BF81F0004142001FBF9C
:100140005FEA410392EA030F7FEA226C7FEA236CA5
:100150006AD04FEA1262D2EB1363C1BFD21841409A
:1001600048404140B8BF5B42192B88BF704710F030
:10017000004F40F4000020F07F4018BF404211F0D3
:10018000004F41F4000121F07F4118BF494292EA3B
:10019000030F3FD0A2F1010241FA03FC10EB0C0067
:1001A000C3F1200301FA03F100F0004302D54942F4
:1001B00060EB4000B0F5000F13D3B0F1807F06D3A1
:1001C00040084FEA310102F10102FE2A51D2B1F199
:1001D000004F40EBC25008BF20F0010040EA03008E
:1001E0007047490040EB0000013A28BFB0F5000F0E
:1001F000EDD2B0FA80FCACF1080CB2EB0C0200FAC4
:100200000CF0AABF00EBC25052421843BCBFD04012
:100210001843704792F0000F81F4000106BF80F48C
:1002200000000132013BB5E74FEA41037FEA226C4F
:1002300018BF7FEA236C21D092EA030F04D092F01A
:10024000000F08BF0846704790EA010F1CBF00204E
:10025000704712F07F4F04D1400028BF40F00040AB
:10026000704712F100723CBF00F50000704700F0CB
:10027000004343F0FE4040F4000070477FEA2262F2
:1002800016BF08467FEA23630146420206BF5FEAC3
:10029000412390EA010F40F4800070474FF00003C3
:1002A00004E000BF10F0004348BF40425FEA000C8A
:1002B00008BF704743F0964301464FF000001CE032
:1002C00050EA010208BF70474FF000030AE000BF88
:1002D00050EA010208BF704711F0004302D54042C6
:1002E00061EB41015FEA010C02BF84460146002038
:1002F00043F0B64308BFA3F18053A3F50003BCFA53
:100300008CF2083AA3EBC25310DB01FA02FC6344FF
:1003100000FA02FCC2F12002BCF1004F20FA02F206
:1003200043EB020008BF20F00100704702F12002F9
:1003300001FA02FCC2F1200250EA4C0021FA02F25A
:1003400043EB020008BF20EADC7070474FF0FF0C5F
:100350001CEAD0521EBF1CEAD15392EA0C0F93EA5A
:100360000C0F6FD01A4480EA010C400218BF5FEAFC
:1003700041211ED04FF0006343EA501043EA51116F
:10038000A0FB01310CF00040B1F5000F3EBF490069
:1003900041EAD3715B0040EA010062F17F02FD2A6D
:1003A0001DD8B3F1004F40EBC25008BF20F0010050
:1003B000704790F0000F0CF0004C08BF49024CEA67
:1003C000502040EA51207F3AC2BFD2F1FF0340EAF9
:1003D000C250704740F400004FF00003013A5DDC6A
:1003E00012F1190FDCBF00F000407047C2F10002AB
:1003F000410021FA02F1C2F1200200FA02FC5FEA98
:10040000310040F1000053EA4C0308BF20EADC70E1
:10041000704792F0000F00F0004C02BF400010F453
:10042000000F013AF9D040EA0C0093F0000F01F000
:10043000004C02BF490011F4000F013BF9D041EA22
:100440000C018FE70CEAD15392EA0C0F18BF93EA24
:100450000C0F0AD030F0004C18BF31F0004CD8D14E
:1004600080EA010000F00040704790F0000F17BFD5
:1004700090F0004F084691F0000F91F0004F14D01B
:1004800092EA0C0F01D142020FD193EA0C0F03D173
:100490004B0218BF084608D180EA010000F0004076
:1004A00040F0FE4040F40000704740F0FE4040F451
:1004B000400070474FF0FF0C1CEAD0521EBF1CEAF0
:1004C000D15392EA0C0F93EA0C0F69D0A2EB03020E
:1004D00080EA010C49024FEA402037D04FF08053A8
:1004E00043EA111143EA10130CF000408B4238BF6D
:1004F0005B0042F17D024FF4000C8B4224BF5B1A7B
:1005000040EA0C00B3EB510F24BFA3EB510340EAC8
:100510005C00B3EB910F24BFA3EB910340EA9C0076
:10052000B3EBD10F24BFA3EBD10340EADC001B01E6
:1005300018BF5FEA1C1CE0D1FD2A3FF650AF8B428A
:1005400040EBC25008BF20F0010070470CF0004C97
:100550004CEA50207F32C2BFD2F1FF0340EAC250C2
:10056000704740F400004FF00003013A37E792F083
:10057000000F00F0004C02BF400010F4000F013AE1
:10058000F9D040EA0C0093F0000F01F0004C02BFDC
:10059000490011F4000F013BF9D041EA0C0195E745
:1005A0000CEAD15392EA0C0F08D142027FF47DAFDE
:1005B00093EA0C0F7FF470AF084676E793EA0C0FCE
:1005C00004D14B023FF44CAF08466EE730F0004CCC
:1005D00018BF31F0004CCAD130F000427FF45CAF5C
:1005E00031F000437FF43CAF5FE700BF4FEA4002C9
:1005F000B2F1FE4F0FD34FF09E03B3EB12620DD951
:100600004FEA002343F0004310F0004F23FA02F0BA
:1006100018BF404270474FF00000704712F1610F61
:1006200001D1420205D110F0004008BF6FF0004038
:1006300070474FF00000704753B94AB9002908BF0E
:1006400000281CBF4FF0FF314FF0FF3000F00CB816
:10065000ADF1080C6DE904CE00F012F8DDF804E00D
:10066000DDE9022304B07047704700BF10F8012B8A
:1006700011F8013B012A28BF9A42F7D0D01A7047DF
:100680002DE9F04786468C460846089E1546744676
:100690001946002B40F0C1808542B2FA82F245D95A
:1006A0004AB1C2F1200300FA02FC954094402EFAB0
:1006B00003F343EA0C0C4FEA154EA8B2230CBCFB23
:1006C000FEF80EFB18CC08FB00F943EA0C439945F1
:1006D00028D9EB1808F1FF3704D2994502D9A8F1BF
:1006E00002072B44A3EB0903A4B2B3FBFEFC0EFBF1
:1006F0001C330CFB00F044EA0344A04214D92C192B
:100700000CF1FF3304D2A04202D9ACF102032C4415
:10071000241A43EA07401EB1D440002334607360BA
:10072000BDE8F0874746DDE76346F1E792BB431B30
:1007300001214FEA154EAFB2200CB3FBFEFC0EFBBD
:100740001C330CFB07F840EA0343984561D9EB18CA
:100750000CF1FF3004D2984502D9ACF102002B44D1
:10076000A3EB0803A4B2B3FBFEFC0EFB1C330CFB93
:1007700007F744EA0344A7424DD92C190CF1FF3383
:1007800004D2A74202D9ACF102032C44E41B43EA91
:100790000040C0E7C2F120039540944020FA03F1E5
:1007A0002EFA03F34FEA154E9040AFB20343B1FB6C
:1007B000FEFC0EFB1C10190C0CFB07F841EA004173
:1007C000884522D969180CF1FF3004D2884502D936
:1007D000ACF102002944A1EB08019BB2B1FBFEFC85
:1007E0000EFB1C110CFB07F743EA01439F420ED995
:1007F000EB180CF1FF3104D29F4202D9ACF1020197
:100800002B44DB1B41EA004193E76046E3E7614686
:10081000F7E76046A4E76346B8E7834206D916B90E
:10082000002108467CE7C6E900E0F9E7B3FA83F760
:100830008FB9834201D3724508D8BEEB020460EB46
:10084000030301209C461EB9002169E73846FAE7F8
:10085000C6E9004CF8E7C7F1200CBB400EFA07F5DB
:1008600022FA0CF42EFA0CF1BA401C4320FA0CF3D5
:10087000B8404FEA144901431FFA84FEB3FBF9F86C
:1008800009FB18300B0C08FB0EFA43EA00439A45AB
:1008900040D9E31808F1FF3004D29A4502D9A8F1F3
:1008A00002002344A3EB0A0389B2B3FBF9F809FB66
:1008B000183308FB0EFE41EA03418E452CD961181E
:1008C00008F1FF3304D28E4502D9A8F10203214476
:1008D00043EA0040A1EB0E01A0FB02984145CE4641
:1008E000434602D306D14D4504D20138B9EB020E7E
:1008F00068EB0403002EA7D0B5EB0E0261EB0301F9
:1009000001FA0CFC22FA07F3F9404CEA0303C6E9AA
:10091000003199E74046C5E74346D9E773B510482B
:1009200007F0E6FFA0B10E4C0E4804F0EBFD0E4EB2
:10093000A5682B684BB120460DF10701984720B9F7
:1009400030469DF8071004F0DDFD03F0DDFCF0E714
:10095000064804F0D7FD4FF0FF3002B070BD00BF75
:10096000EC920010559800108D9800103E980010E1
:10097000014B1B68184700BFD0000020014B1860D6
:10098000704700BFD000002030B585B004460D464A
:1009900010220021684608F0D3FB02238DF80230B4
:1009A000044B2A4621466846019304F03FF805B0FF
:1009B00030BD00BF7109001080B505460E461746D0
:1009C000984603F045FD034600F002FC0446DFF8BC
:1009D0001890424649F8003039463046A84754F846
:1009E000090000F0E5FA00BF0800000007B51B4948
:1009F0001B4805F03CF970BB1A49194805F037F956
:100A000048BB1949164805F032F920BB174914486C
:100A100005F02DF9F8B90146154A114805F0E8FB33
:100A2000C8B90246012313490D4805F0BCFC90B932
:100A3000012301460093EF220223094805F038F80C
:100A400048B9074805F05DF828B9054803B05DF8D6
:100A500004EB05F085B803B05DF804FB4801002005
:100A60006C06002030010020180100200001002049
:100A7000D40000209098001008B50348034A0021D4
:100A8000121A04F073FF08BD0007002014110020A3
:100A9000074808B5074A0849121A04F069FFBDE87B
:100AA00008400648064A0749121A04F061BF00BF11
:100AB0000000002000070020189E00100000002009
:100AC00000000020189E001038B505460C4699B16C
:100AD000D1E901230F48096804F014FDD4E9042387
:100AE000E1680D4804F00EFDE1690C4804F00AFDD0
:100AF000A1690B4804F006FD012D05D1EFF3058136
:100B00000848103904F0FEFC21462846BDE838406C
:100B100002F032BCDD9800100D9900103D990010D4
:100B20004D9900107C99001030BFFFF7FDBF00BF4A
:100B30002DE9F04105460B4EDFF82C80324606EBDE
:100B40000807CC1B2046094908F0EDFAA0194246D7
:100B50000021083C08F0F4FA6C6707F10800BDE8D2
:100B6000F08100BF00000000080000003096001077
:100B7000054B5A699B689A421FBF044A536843F069
:100B800080535360704700BFDC10002000ED00E090
:100B900010B5204C204804F0B5FCA36A990137D564
:100BA0001E4804F0AFFC1E20A36ADA0103D51C48DE
:100BB00004F0A8FC1F20174CA36ADB0203D51948D8
:100BC00004F0A0FC2020A36A1C0303D5164804F0FF
:100BD00099FC21200F4CA36A590303D5134804F054
:100BE00091FC2220A36A9A0303D5114804F08AFCE1
:100BF0002320084CA36ADB0303D50E4804F082FCD3
:100C00002420A36A6FEA03436FEA1343A36210BD73
:100C10001D20C9E700ED00E090990010A99900108F
:100C2000BD990010D8990010039A0010229A001064
:100C3000489A0010639A001070B5244C0646244868
:100C40000D4604F05FFCA36AD90435D5214804F0B1
:100C500059FC1720A36A1A0503D51F4804F052FC5B
:100C600018201A4CA36A9B050FD51C4804F04AFCB7
:100C7000A16BA36A180407D5194804F043FC1EB100
:100C8000A36A23F40043A3621920104CA36A5905F8
:100C900003D5144804F036FC1A20A36ADA050DD5F2
:100CA000114804F02FFC1B20084A936A43F47F4349
:100CB000936200232B7070BD1620CBE7A36A9B04C0
:100CC000F2D50A4804F01EFC1C20EDE700ED00E020
:100CD0008F9A0010A69A0010B89A0010CC9A0010B3
:100CE000E69A0010FC9A0010189B0010319B00102F
:100CF00070B5264C064626480D4604F003FCA36A50
:100D0000D80640D5234804F0FDFB1120A36A19073B
:100D100003D5214804F0F6FB12201C4CA36A9A0765
:100D20000FD51E4804F0EEFB616BA36A1B0607D5C6
:100D30001B4804F0E7FB1EB1A36A23F08003A36203
:100D40001320124CA36ADE0703D5164804F0DAFB21
:100D50001420A36A9C0603D5134804F0D3FB152086
:100D60000A4B9A6AD10658BF9A6A9A6A920642BF9B
:100D70005A6A22F400525A629A6A42F0FF029A6258
:100D800000232B7070BD1020C0E700BF00ED00E015
:100D9000619B0010789B0010B89A0010AC9B00106B
:100DA000C59B0010DC9B0010319B00102DE9F04129
:100DB0005B4B04465F6800258AB0C7F3080685F3DD
:100DC0001188BFF36F8F02F07F43B3F17F4F06D1DD
:100DD00002F00C03082B13D1524804F093FB0025BA
:100DE0002C464FF00008F31E8DF80780092B00F207
:100DF0008580DFE803F00A797D75838383838381AF
:100E000010074CBF0C460125EBE74748444E04F061
:100E100079FB8DF80780F36A9A0704D5434804F0FC
:100E200071FB00232FE0F36A002B01DA4048F6E75C
:100E3000F36A5B00F5D53F4804F064FB7369A2696F
:100E400043F480737361BFF34F8FBFF36F8F736988
:100E500032F8022C23F480737361BFF34F8FBFF31A
:100E60006F8F4DF602739A4208D0B36ADBB24BB370
:100E700001200DF10701FFF73BFF33E021682E4809
:100E800004F040FB23689DF80720C2B902AE04F1CC
:100E90002007324620686168083403C2BC42164607
:100EA000F7D1099AB5B3C2F3080121B96FEA52220A
:100EB0006FEA42220992184602A9FFF705FE0AB01E
:100EC000BDE8F081B36A13F47F4F05D001200DF126
:100ED0000701FFF7B1FE05E0B36AB3F5803FA0D389
:100EE000FFF756FE0346CEE700200DF10701C2E7EB
:100EF00000200DF10701ECE7104890E7104B17F4C4
:100F0000F87F1049104818BF1946A6F1100204F0E6
:100F1000F9FA86E722F4FF7222F00102CAE700BF65
:100F200000ED00E02A9C0010569C00106E9C001002
:100F3000909C00109F9C0010BF9C0010DC9C001037
:100F4000119C0010FC9B0010019D0010044B5A697D
:100F500042F010025A615A6922F008025A61704741
:100F600000ED00E0EFF30880EFF3098101B5724670
:100F7000FFF71CFF01BD00BF0B4880F3088804F099
:100F800087FD102080F3118808484FF40061401855
:100F900080F30988EFF314800221084380F314885A
:100FA000BFF36F8F00F09CF8582400201817002022
:100FB000084B9B6883420BD1EFF3058343B1064B8B
:100FC0005A6842F080525A605A6A22F400425A62C9
:100FD00003F044BADC10002000ED00E011498A68FB
:100FE0004FF030001044EFF3098C80E8F01F102020
:100FF00080F31288BFF36F8F0B4F4FF000664A6982
:101000008A603E60506F094C2060906F00239367A8
:1010100080F3118802F1300090E8F01F8CF309880A
:1010200070470000DC10002004ED00E0700B002091
:101030001EF0040F0CBFEFF30880EFF30980816905
:1010400011F8021C0229FFD001B5724604F092FC8F
:1010500001BD00BF40B2002807DB01234109034A5C
:1010600000F01F00834042F82130704700E100E0AB
:1010700040B200280CDB01220649430900F01F00A2
:101080008240203341F82320BFF34F8FBFF36F8F8F
:10109000704700BF00E100E040B2002801F101010B
:1010A000ACBF00F16040064B4FEA0111C9B2ABBFC3
:1010B00000F5614000F00F0080F8001319547047EC
:1010C00014ED00E0044B054A23F07F039360BFF367
:1010D0004F8FBFF36F8F70470000001000ED00E0EE
:1010E00008B5FFF7EFFF0B4AD2F8883023F47003FE
:1010F000C2F88830EFF3148323F0040383F31488D9
:10110000BFF36F8FFFF7B8FCFFF7C2FC00F042F8A7
:1011100002F0F6F900ED00E042F8203C009B0B499C
:1011200042F81C3C019B21F0010142F8183C029B53
:1011300042F8081C42F8143C4FF0807342F8043C1B
:101140000023203A02658367704700BFB909001089
:1011500000B50B4B15469860426F0A4B0E461A605D
:101160002C4686F309880020034B9847204600212F
:1011700000220023014C204799590010B9090010A2
:10118000DC100020700B00201022014B1A61704708
:1011900000ED00E0002310210348C2180133342B76
:1011A00082F80013F9D1704700E100E008B5EFF3D1
:1011B0000583064A103B02EBC30152F8330049682D
:1011C0008847BDE80840FFF7D3BC00BF409300103C
:1011D0000148006870470000700B002008B5024B02
:1011E0001B689847002008BD740B0020034B044A7D
:1011F0001860937843F0020393707047740B0020DB
:101200006001002008B5054804F07CF9002383F351
:101210001188BFF36F8F0423184602DF159D00105D
:1012200008B50649064821F00701C1F1202202F560
:10123000002204F0BAF8002008BD00BF9737002054
:10124000780B002070B541690446857A0B4E59B180
:10125000437ADB0706D4242303FB0563DB691B68A1
:101260009B6898470023636105EBC505214606EBA3
:101270008500BDE8704007F0C9BC00BF48060020EB
:101280002422024B02FB0030704700BF48060020BA
:101290002DE9F04385B00546684690461C4603910B
:1012A00007F084FEDDE90067EFF31189102383F373
:1012B0001288BFF36F8F6B8A002B41D02A8A9A4223
:1012C00025D900220023284602F068FB0446F0B12D
:1012D00089F31188BFF36F8F039B002B41D03246F7
:1012E0003B46684607F087FE2421A27A254B20461C
:1012F00001FB0233DB6903A91B681D68DDE90023DC
:10130000A847606170BB2046FFF79CFF24E0698A14
:101310004B1E6B8289F31188BFF36F8F2B7D2A8A56
:101320002C6A1B3323F00303521A02FB0344154BB0
:10133000154AEB1A9B105343A3722B7DE372CBE744
:1013400089F31188BFF36F8F23464246284602F087
:1013500025FB04460028BFD10024204605B0BDE887
:10136000F0836361012300252381039B2946638267
:10137000E27A656004F1180007F0E2FE63692582F5
:10138000E360EAE748060020398EE33870B524258B
:101390000C4C00B970BD037A4668002BFAD0013BB3
:1013A000DBB20372002BF5D1C3604360837A05FB87
:1013B00003439B6913B198473046EAE7FFF742FFC2
:1013C000FAE700BF480600202DE9F04190F82830E8
:1013D000044603F01F03012B0F4600F128061BD023
:1013E000022B05D043BB90F8291004F0C5FF03E0A1
:1013F000818DC9B204F09DFF0546E8B1304604F086
:10140000BEFC024668688368A2B99B684BB13A4645
:101410003146BDE8F0411847818DC9B204F070FF34
:10142000EAE76FF08503FFF7D3FE0F4A1350002061
:10143000BDE8F081DB68E9E7204694F8291004F064
:10144000BDFB02460028ECD0304604F098FC40B9C1
:101450001369002BE5D03A463146204698470346AB
:10146000E1E7D368F5E700BF0C0000002DE9F04F7D
:101470000B7E044633F08008174693B000F128092C
:1014800040F071844A7E02F0010097B117F10C0F11
:101490000FD088B917F1710F03D10846FFF776FF17
:1014A00003E00846FFF772FFB846404613B0BDE8B8
:1014B000F08F002800F04084002B40F00E840B8A4F
:1014C000072B0DD80846FFF761FF484604F057FC8C
:1014D0000346A069002B00F03684802100F03CBC5C
:1014E000CA681368A3625368C9F804304A68E58D76
:1014F000002AE7D0484604F042FC08BB537E15B1F1
:1015000013F0020F01E013F0040FDBD0002004F011
:101510007BFA05460028D8D0FFF75AFE002394F83E
:101520002820B84E12F0600F8351C2F341130BD044
:10153000032B40F0B381FFF74BFE6FF0850340E0D3
:10154000002DBFD0537EDBE7484604F018FC94F82A
:101550002930002840F03981013B0A2BEBD801A14A
:1015600051F823F0B1160010371500103317001092
:1015700037150010911500103715001037150010A1
:1015800037150010031600103715001065160010EF
:10159000A069618D03697F29D3F88030CBD8A28DF3
:1015A000002AC8D1E28D002AC5D194F82820D2069D
:1015B000C1D194F83420022A05D1FFF709FE4FF07B
:1015C000FF33335013E01B0706D5C9B204F00DFCFE
:1015D000804620B1284661E7012384F83D3094F825
:1015E0003430012B0BD1638D4BB984F83430FFF7C5
:1015F000EFFD3358002B00F05683284663E70123A4
:10160000F3E7204604F04FFA628D0146FF2A92D894
:10161000E38D002B8FD194F82830D8068BD194F825
:101620003430002BC9D02AB12046D2B204F08DFD4F
:101630000028C2D0618D94F83C308B42D7D0204630
:10164000C9B204F089FD80460028C3D1628D05210E
:10165000002A14BF02230123204684F8343005F009
:1016600092F8C4E794F8283003F01F03012B7FF4AD
:1016700062AFE38D002B7FF45EAF628DFF2A3FF6F1
:101680005AAFA18DFF293FF656AF94F83430022BA4
:1016900093D12046D2B2C9B204F06BFF10F1020F11
:1016A000804640F00081FFF793FD46F800809EE7FA
:1016B000E38DA18D002B7FF43EAF94F83430002BE6
:1016C0003FF47BAF012B0FD100297FF476AF12F0EE
:1016D0001F020CD1638D012B89D194F870306FF308
:1016E000C30384F8703082E712F01F0217D0022A79
:1016F0007FF47DAFB4F82AA0BAF1000F7FF477AF82
:101700005FFA81F84146204605F023F80346FFF7CB
:101710005FFD3350013306D14FF0FF385AE70029FF
:101720007FF44BAFD6E752464146204604F02DFBEE
:101730005DE7E38DA18D002B7FF4FDAE638D5FFA35
:1017400081F8022B13D194F8283003F01F0358EAD4
:1017500003037FF4F0AE0122A069090A04F025FB1F
:1017600000287FF4E8AE012384F83D303FE794F889
:10177000340000283FF421AF01280DD100297FF467
:101780001CAF12F01F020AD1012B7FF430AF94F886
:10179000703043F00803A4E712F01F0211D0022AB0
:1017A0007FF425AF002B7FF422AF4146204604F0A2
:1017B000BCFF0346FFF70CFD33500133ACD00122D0
:1017C000B2E700297FF4F9AEDEE70A2B3FF6B3AEAD
:1017D00001A151F823F000BF0918001037150010BF
:1017E0003715001037150010371500103715001089
:1017F00089180010371500103F1C00103715001015
:101800006D1C00100C000000E38DA18D022B7FF4F5
:1018100092AE94F83430002B3FF4CFAE012B10D1B0
:1018200000297FF4CAAE12F01F020DD194F8703077
:101830004FEA930808F00208C3F3001348EA0308CC
:1018400006E012F01F0210D0022A12D04FF000085A
:1018500005F10C0A504604F013F9E38D98420ED2BC
:10186000FFF7B6FC6FF00B03ABE600297FF4A5AEE3
:10187000DCE72046C9B204F07BFF8046E8E741463A
:10188000504604F0E4F8B2E694F82820B4F82AA010
:10189000D2064FEA1A235FFA8AFA09D0294620466F
:1018A000FFF792FD8046B8F1000F7FF493AE9EE6FD
:1018B000013B0E2B3FF63FAE01A252F823F000BFD2
:1018C000FD18001047190010FF19001037150010FF
:1018D00037150010F7190010F71900103715001010
:1018E0003715001037150010371500103715001088
:1018F0003715001037150010471B001005F10C0AB2
:101900005046B4F82E8004F0BBF880450AD2B4F8F3
:101910002E80204604F0C7F848B101287FF40BAEB2
:10192000A16F05E0504604F0ABF88046F1E7616F27
:10193000002900F013810A785046424528BF4246EC
:1019400004F074F853E6204604F0ADF80AF1010201
:1019500001460190D2B2204604F0D1FB8246002815
:101960003FF4E9AD05F10C08D0F804B0404604F0AE
:1019700087F89BF80020904203D2404604F080F89C
:1019800002465946404604F051F8DAF80CA0BAF184
:10199000000F09D1298AE38D99427FF628AE40468F
:1019A000C91A04F05EF822E6DAF8040083681B6BBB
:1019B00013B9DAF800A0EAE7019998470028F8D0AF
:1019C000A0F1040B5BF8043F002BF2D01B78002B36
:1019D000EFD0404604F054F8DBF800301A7890421B
:1019E00003D2404604F04CF882B24046DBF80010C7
:1019F00004F01CF8E6E7204604F055F89BE5524653
:101A00000321204604F019F9824600283FF493ADE3
:101A100004F0B0F9B4F82EB0E0B9BAF8143005F11A
:101A20000C08ADF82830DAF8103040461B88ADF8C5
:101A30002A3004F025F8834508D2E08D9DF828204F
:101A40000AA9824228BF0246404679E7404604F090
:101A500017F8F3E700238DF814309AF81530DAF808
:101A600008208DF81530C24B1340C24A934258D11A
:101A7000102106A806F06CFC0028FFF65CAD0AAA4F
:101A80001028114628BF1020DFF8ECE20DF1180CE9
:101A9000404502F1020233D8800002308DF8140074
:101AA000019105F10C0A504603F0EAFF9DF81480FD
:101AB000D84528BFD846404503D2504603F0E0FF42
:101AC0008046B8F1020FC34628BF4FF0020B5046C4
:101AD0005A4605A903F0AAFFA8EB0B08DDF804B0ED
:101AE0004FEA58030BEB58025A4522D118F0010F68
:101AF0003FF47DAD5046019AD15C03F0A0FF76E53E
:101B00001CF8013B08F101084FEA131A03F00F0318
:101B10001EF80AA01EF8033002F802AC02F8013CDD
:101B2000B6E79AF814308DF81430DAF810300193D3
:101B3000B7E750461BF8011BCDE9023203F087FFDF
:101B4000DDE90232D0E7204603F0ADFF20B10128E5
:101B50007FF4F1ACA36F00E0636F13B96FF0150869
:101B600038E55B88B3F5007F7FF6E5AC834B04F185
:101B7000500A0A9300238DF82C30236D9A455BD1CF
:101B800005F10C0B584603F07BFFBDF82A80E38D6E
:101B9000984528BF9846404503D2584603F070FF49
:101BA00080469DF828205846424528BF42460AA94B
:101BB00003F03CFFB8F1050F94BFA8EB0808A8F1AB
:101BC0000508B8F1000F3FF412AD236D53453FF403
:101BD0000EAD002B3FF40BAD5A7D0F2A14D11A7DA8
:101BE0001969424528BF42465846019303F01EFF3B
:101BF000019B1A7D424594BFA8EB0208A8EB080898
:101C0000B8F1000F3FF4F3AC626D9A423FF4EFACD1
:101C10001B68DEE75A7D0F2A0AD11A7DBDF82A100B
:101C20000A44ADF82A209DF82C2001328DF82C2092
:101C3000626D9342A4D01B68002BEBD1A0E794F80F
:101C4000343094F83CA0002B3FF4B7ACE38D012B6B
:101C50007FF471AC05F10C08404603F011FFE38DF1
:101C60009842FFF4FDAD5146404646E794F82830CF
:101C700003F01F03012B7FF4A0AC204604F053FABD
:101C800000283FF49AACA38D4268FF2B3FF653AC7B
:101C900012799A42FFF44FAC0F2B3FF64CAC234421
:101CA00093F83EA0D2E701234846236304F067F887
:101CB00060B9E38D53B12946002003F0A5FE054627
:101CC00000283FF402AC6B7E5E07F4D5294620461F
:101CD00013B0BDE8F04F04F0C8BC50077FF5F5AB7A
:101CE000802B7FF4F2AB0846FFF750FB236B012BF0
:101CF0007FF4DBAB94F83D30002B3FF4D6AB94F887
:101D00002930052B05D1618DA069C9B204F06DF8A9
:101D1000804694F82930032B09D1638D022B06D11C
:101D2000A18D0022A069090A04F03FF88046002333
:101D300084F83D30FFF7B9BB52077FF5C6AB002BE7
:101D40003FF4ABABCCE7E38D002B3FF4C6AB17F110
:101D50000C0118BF0121C90105F073FA0023804668
:101D60002363FFF7A2BB6FF00408FFF79EBB00BF21
:101D700000FF0200000302001E9D0010050F050079
:101D80000B7810B4062B14D10369D3F89C20EFF321
:101D90001184102383F31288BFF36F8F00204B68E8
:101DA0001860506A58B9C2E9083384F31188BFF348
:101DB0006F8F00220023034810BC06F07EBE036034
:101DC0005362F2E71C0600202DE9F0431026624F13
:101DD00085B04FF0FF334FF0FF32384601A901F0D4
:101DE000B3FC039B1B69D3F89C40236A5BB1EFF300
:101DF000118386F31288BFF36F8F216AE1B983F3F1
:101E00001188BFF36F8F9DF80430062BE1D0072BAC
:101E1000DFD801A252F823F07F1E0010731E0010BD
:101E20009F1E0010851E0010C31E0010B91E00105A
:101E3000D31D0010511F0010606A0A68814222629F
:101E400008BF626283F31188BFF36F8F0B7E204659
:101E50005D06D1F81E2009D1FFF708FB02460028D5
:101E6000C3D00721204604F08EFCBEE704F058FAE8
:101E7000F4E700220121204604F085FCA9E70022B6
:101E80001146F8E794F8703001A943F004032046A6
:101E900084F8703003F0C8FF00220321EBE794F8C8
:101EA000703001A96FF38203204684F8703003F08C
:101EB000BBFF00220221DEE7204601A903F0B4FFA8
:101EC00087E794F87030D4F818806FF3820384F8B1
:101ED0007030D8F80890D8F81030A033D3E8AF3F6E
:101EE0009A072BD54046D9F83C309847D9F824308A
:101EF0000021404698470546D9F84030404698476B
:101F0000F5B92946204604F027F90546C0B98021D5
:101F1000204604F007FCA06905F046FA831E5842EB
:101F2000584194F870302A4623F0680343EA40137E
:101F3000042184F8345084F870309CE74FF0FF356A
:101F400000220421204604F01EFC2A46072192E7C5
:101F50000621029A8FE700BF1C06002030B589B029
:101F6000002200230024CDE906236FF007034FF47D
:101F70008062CDE90334CDE90144154B1549009445
:101F8000154801F0B7FF1549134806F0CAFE144B77
:101F900014498B4207D30020134B14498B420CD3B6
:101FA000002009B030BD03F11402D2E8EF0FC2E8FF
:101FB000E54F002DF9D11833EBE703F11402D2E815
:101FC000EF4FC2E8E50F002DF9D11833E6E700BF67
:101FD000C91D001018110020000700202F9D0010BF
:101FE000E80600200007002000070020000700206E
:101FF00038B5024605460949806905F034FA0446B9
:1020000048B985F83C00284603F07FFF044610B12C
:10201000A86905F057FA204638BD00BF811D0010A1
:1020200070B50546074C084EB44202D30024204642
:1020300070BD636828461968FEF718FB0028F6D0C3
:102040001834F1E7E80600200007002070B50646C6
:10205000EFF31181102282F31288BFF36F8F1D4CB2
:10206000236881F31188BFF36F8F5B6893F870303A
:10207000DB0705D4BDE870400A22002301F0FABE58
:10208000EFF3118382F31288BFF36F8F256865B970
:1020900083F31188BFF36F8F2368D3B13046BDE857
:1020A00070400022002301F0B1BE61682A688D42B1
:1020B00008BF6260226083F31188BFF36F8F686886
:1020C00005F10801C36998472946034806F0A6FCB4
:1020D000E2E770BD840B0020EC05002030B585B030
:1020E0006C46054684E8060000230022144803A934
:1020F00001F092FA0246E8B994E80300039B5D60A0
:10210000083383E80300EFF31180102383F3128870
:10211000BFF36F8F039B1A600A4A516861B9C2E925
:10212000003380F31188BFF36F8F0022002306482D
:1021300001F06CFE05B030BD0B605360F1E700BFED
:10214000EC050020840B00200000002038B54B78FF
:102150000469202B4568206908D0222B19D0FFF78D
:1021600037F86FF08502104B1A5010E0CB88072B20
:10217000F5D1D3681A6842609A8802819B7983728C
:1021800004F022FB22460821284604F00AFB002026
:1021900038BD4B880921C3F34002838103F001035A
:1021A000027643762246EFE70C00000008B513469E
:1021B000026910694A78212A12D133B9FFF708F869
:1021C0006FF00B02094B1A5008E0CA88011D072A5C
:1021D00028BF072203F10C0003F028FC002008BDF3
:1021E000FEF7F6FF6FF08502004BECE70C000000F5
:1021F00073B5102504698DF80710EFF3118685F388
:102200001288BFF36F8F0122E06B0DF1070103F01D
:102210006AFB86F31188BFF36F8F01280ED006F09A
:102220007AFD08B9A37E8BB901220B4BD3E8EF1FCF
:10223000002903D1C3E8E02F0028F7D10A220023A8
:1022400004F1480001F0E2FD02B070BD00210A2057
:1022500006F006FED1E700BF8C0B002038B5002445
:1022600005690E49EB6B05F14800C3E90144DC60E8
:102270006B6BC3E90144DC6006F041FD05F17800B9
:10228000074906F010FD074905F1240006F00BFD93
:10229000284604F099FA204638BD00BFCF690010E7
:1022A0005D6C0010DF6C0010F8B5144687680546B9
:1022B000FB6B0E4698472146002200230548FEF797
:1022C000E7FF044600B1067628463B6C9847204657
:1022D000F8BD00BF4806002030B5036989B0044648
:1022E000D3F8AC5000220023CDE906236FF007039A
:1022F0000122CDE9033200230090CDE901334FF4F0
:1023000000722846054B064901F0F4FD2168284675
:1023100009B0BDE8304006F004BD00BFDF7D00100D
:10232000181500202DE9F74347680546D7E90069ED
:10233000D7E90C01D7F828808368DB68002B44D0EC
:1023400098470446E8B901464FF48C72304606F0CF
:10235000F7FE4FF480522146484606F0F1FE09236D
:102360007367B8F1000F01D10C23B367002240233B
:1023700011460092284604F0CEFE024628B16FF0C6
:102380000404204603B0BDE8F08300904023802180
:10239000284604F0C0FE04460028F0D14FF0005358
:1023A000F3640B4BC6F89030336DDB0707D54FF461
:1023B00080326B681B684C3343F400531A6001236E
:1023C00033642846FB699847DBE76FF05704D8E78A
:1023D000F0FB01002DE9F04F426801691568D1F862
:1023E000AC60D5F898408346A104976A87B017D5AA
:1023F0002A6D67B112F0011209D14FF4803305F153
:102400004C0141F440510B60012104F01CFE4FF4DB
:102410008031DBF804201268503242F440521160DF
:10242000220519D52A6D7FB1D3070DD54FF4803120
:10243000DBF80420584612684C3242F40052116016
:102440000022114604F0FFFD0121DBF80420126890
:10245000503242F440521160C44A22404AB196F8C8
:10246000942132B100220221584686F8942104F0CA
:10247000EAFD270414D500274FF40061DBF804209F
:1024800058461268503242F440521160394686F87C
:10249000947104F06AFD3A460221584604F0D3FDD7
:1024A000600410D51021DBF8042058461268503221
:1024B00042F440521160012104F057FD0022032133
:1024C000584604F0C0FDE1040ED54FF40021DBF8BE
:1024D000042058461268503242F4405211600022E3
:1024E00004212A6004F0AFFDA20608D54FF0004198
:1024F000DBF804201268503242F440521160630647
:102500000ED54FF00061DBF80420584612685032B7
:1025100042F4405211606FF01502072104F093FD60
:1025200027060ED54FF08061DBF80420584612686C
:10253000503242F4405211606FF01502072104F04E
:1025400082FDE6050ED54FF00071DBF804205846F9
:102550001268503242F4405211606FF015020721A8
:1025600004F071FDA5050ED54FF08071DBF8042055
:1025700058461268503242F4405211606FF0150212
:10258000072104F060FDE00648D4E10340F1FB8040
:102590004FF40031DBF8042058461268503242F400
:1025A00040521160DBF810208021D2F8AC40DBF8FB
:1025B0000420556805F02EFA5846002105F02AFA45
:1025C0002A6804F1800084F89521C2F30721120CD7
:1025D00084F89721120A84F8961184F898216A6881
:1025E000C2F3072184F89A11012184F89921120C71
:1025F00084F89B21120A84F89C21DBF81020D2F881
:10260000AC2082F81811DBF81030D3F8AC3083F826
:10261000981007B0BDE8F04F05F07FB90025DBF852
:102620000420126852F8588F42F440530493B8F1D2
:10263000000F05D1A9E728FA05F2D20703D4013526
:10264000202DF8D1A1E70123AB400193019A049B0F
:102650004FEA550A1A60EB07C5F3470756D5DBF872
:10266000102039465846D2F8AC6004F095FCDBF8EF
:1026700010208146D2F8AC30029304F0D0FC50B95F
:102680006FF068020721584604F0DDFC019B01351C
:1026900028EA0308CBE739460590DBF8040005F08B
:1026A0008AF8059A06EBCA06D6F8943002F10C06B1
:1026B000C0F309073046039303F0E2F9874216D3CB
:1026C000304603F0DDF902463046039903F0AEF9D7
:1026D000304603F0D5F960B1B9F81A20C2F30A0206
:1026E000974206D14946584605F036F9CEE73A46B4
:1026F000EAE7029B514603F1900005F010F904212E
:10270000029B03F1800005F008F9BFE747F080065F
:102710003146584604F040FCDBF810208146D2F8E0
:10272000ACA004F07CFC07460028A9D03146DBF8B9
:10273000040005F040F8C0F3090107F10C0003F0B4
:1027400097F93A8A2AB14A463946584605F03DFA81
:102750009CE7384604F06EFC50B14A46394658466C
:1027600005F033FA384604F069FC8FE710000100E9
:1027700026F0800110310AF1900005F0D0F8042114
:102780000AF18000BFE707B0BDE8F08F4FF080721C
:10279000074BDA61A3F54053DA69D20102D56FF035
:1027A000150070470160D86910F08070F7D170474C
:1027B00000B00E400B2907D8DFE801F0090909092C
:1027C000121E27062D2D3A3A4FF0FF3070470C228B
:1027D00051430368184A5B58C3F34313D0567047FC
:1027E000164B1A6B1B6B13F003031FD0022B1FD069
:1027F000C2F34313124AF1E7104AD36BD26B92072C
:1028000018D0104AC3F34313E8E70C4B0E4A9B6CF5
:10281000C3F34313E2E70C23594301F1804101F56F
:1028200080310B68094AC3F34313D7E70E20704782
:102830000C20704704207047669D00100000014086
:10284000639D00105D9D0010569D0010509D00106E
:102850002DE9F04107460C467D68214628463E6931
:1028600005F04DFC00286CD00E2C6AD8DFE804F08F
:102870000808080808082B69080831316B636700ED
:10288000214628462E68FFF795FF01463846FFF798
:10289000DFFF0C2303FB046305465E68586880B2C3
:1028A000FDF7FCFC2949FDF705FE0446300CFDF759
:1028B000F5FC01462046FDF741FC01462846FDF7A0
:1028C000F9FDBDE8F08106212846FFF773FF0446B5
:1028D000C2E72146D5E9023628460A2C08BF1E4623
:1028E000FFF768FF01463846FFF7B2FF0446B068BD
:1028F000FDF7D4FC2146FDF729FDD6F800800446FB
:1029000008F03F00FDF7CAFC01462046FDF7D2FD66
:10291000F7680446C7F30240FDF7C0FC01462046B5
:10292000FDF7C8FDF5680446C5F30230FDF7B6FCB7
:1029300001462046C3E73068FDF7B0FCC1E7706888
:10294000FAE70020BDE70248BBE700BF00FF7F4772
:10295000001B374B2DE9F0438FB005AA9046446821
:10296000A36825680393E36826690493674B03F122
:10297000200C174618685968083303C763453A4660
:10298000F7D11B88624A3B80624B1A60624A634BF4
:102990001360A2F54052976833EA0707FBD1B946A6
:1029A0005FFA89F00C2109F1010905F01CFFB9F16A
:1029B000060FF5D10023C5F8843000F02BFC584BEE
:1029C000DA6B22F00302DA635A6C012AFCD11A6B2B
:1029D00022F003021A639A6B012AFCD1636AE2694E
:1029E000DFF84091009309FB02F2236AA169039882
:1029F00000F0B6FB636BE26A0093A16A049809FBDE
:102A000002F2236B00F0ACFB1121404605F0CAFB3B
:102A100018F8170018F91710092861D90137112F74
:102A2000F6D14FF4006305F540521360D36005F50D
:102A3000405205F5405593616B62D4F8D81006F109
:102A4000180041F42A61FFF7A1FE002855DBD4F8F5
:102A5000DC10304641F47A0141F43041FFF796FE34
:102A600000284ADBD4F8E010002949D01F294AD8B1
:102A700001F52A4106F11400FFF788FE00283CDB2F
:102A8000B4F8E410284D301D2943FFF77FFE0028DD
:102A900033DBB4F8E61006F108002943FFF776FEB1
:102AA00000282ADB6FF060421B4B1A60A3F54053ED
:102AB0009D68ED4335F06045FAD12946606902AA68
:102AC00005F062FC002807DB029B2A46197918688A
:102AD00005F06DFC002801DA831C0ED100200CE00B
:102AE00004EB01110B6C00934B6CD1E90E1205F055
:102AF00051FE002892D16FF015000FB0BDE8F083B1
:102B00004AF60121B6E74FF42A41B3E730960010A8
:102B10007F3BEFEF0020024000300240F6FFF3035E
:102B200000000140001BB7000000969608B507485A
:102B300005F0DEFE38B10648FEF758FB0448FDF705
:102B40001DFF002008BD6FF01200FBE7D0920010BF
:102B5000552B00100A2838B50446074D04D1AB6840
:102B60000D2128465B689847AB6803485B68E1B273
:102B70009847204638BD00BFD09200104FF0504318
:102B8000084A1968084B002918BF134630331A4603
:102B9000106820B90432D11A1429F9D970470120DC
:102BA000704700BF908202404882024070B50C46D8
:102BB00015460669BAB91146204600F073FB2D4B45
:102BC00022B203EB840453F8223004F5805283F0E0
:102BD000800303F0C00313604FF4807304F50054C6
:102BE0002360002070BD2046C2F34012C5F30011DF
:102BF00000F058FB0521204600F038FB15F4803129
:102C00001BD04FF0000343EC4440AB03E9D5012354
:102C1000A807F26803FA04F11BD50A436807F260BB
:102C200032690ED50A4332614FF0000343EC404055
:102C3000C5F3804545EC4440D3E7204600F080FBD7
:102C4000E3E722EA0102326143EC4040C5F3C045AC
:102C5000F0E722EA0102F26015F4002204D043EC0E
:102C6000404043EC4440BCE76903FAD542EC4040A5
:102C7000F7E700BF048003404FF050432DE9F047D1
:102C80001C4A19681C4B064600290CBF9046984602
:102C90000024D0F81090DFF864A0E30803F10C02E0
:102CA00058F8221004F007029200D140090704D11D
:102CB0000134302CF1D1BDE8F0870F218C3301FABB
:102CC00002F24AF82320D9F804100029F0D0012795
:102CD0000D68A7400029EBD08A683A4002D0304600
:102CE0004B6898471DB12B6829461D46F2E72B46D5
:102CF000FAE700BF48820240908202400080024012
:102D0000054B186801238B40034214BF01230023A5
:102D100000201370704700BF000002400123024AE8
:102D20008B4000201360704700200240012303FA0B
:102D300001F1044B1960A3F54053986831EA000093
:102D4000FBD1704700300240012303FA01F1064B2A
:102D5000196003F580531960A3F54053986831EA70
:102D60000000FBD1704700BF002002402DE9F84F62
:102D7000D0F81090D0F804A099F8083006460F4615
:102D80009046DAF800B0002B40F086805AB1DBF8AC
:102D9000303023F00103CBF8303043681A68D36A2F
:102DA00023F01003D3623B79DBF82C40012B24F095
:102DB000EE0405D0022B13D023B16FF0850054E050
:102DC00044F002047B79012B03D0032BF5D144F0AE
:102DD0000804BB79032BF0D8DFE803F007051114D2
:102DE00044F00604EEE744F02004FB796BB1012BBC
:102DF000E3D173681A68136B43F440430AE044F06C
:102E00004004F2E744F06004EFE773681A68136B5C
:102E100023F4404300251363D9F80C103A682B467D
:102E200012018801890EFDF707FC0346DFF870E008
:102E3000403B61F1000C72689E4575EB0C0C12680A
:102E400027D3830943EA816300F03F005362906215
:102E5000BFF35F8F2846D36AD362CBF82C403B6820
:102E6000C9F800307B68C9F80430B8F1000F0ED003
:102E70009AF81C302BB973681A68D36A43F01003B0
:102E8000D36273681A68136B43F001031363BDE8E0
:102E9000F88F6FF01500E8E76FF08500F7E700BFE7
:102EA00080FF3F004FF0E02310B50F499C691A697D
:102EB00008689B690D4902F4803234B993B903461E
:102EC0004AB90A681044C01A10BD002B08BF034657
:102ED0000AB9A342F5D90A6802440A604FF0E02219
:102EE0001269EEE70446F3E7B00F0020AC0F0020B4
:102EF0001022094B002083F8232043F69822074B29
:102F00001A60074B43F6972218604FF0E0235A618E
:102F1000072298611A61704700ED00E0B00F0020B1
:102F2000AC0F0020684620F007018D4619B5FFF769
:102F3000B9FF1149114B0868D3E90042001942F169
:102F40000002C3E9000200230B6043F698230C4AF9
:102F5000D2E90041001BB0FBF3F043431B1941F1E0
:102F60000001C2E9003101F06BFCFDF701FEBDE894
:102F700019408546704700BFAC0F0020280900208B
:102F8000200900202DE9F041DFF8E08099B1421CD2
:102F90000BD14FF0E022136923F0010313614FF0CE
:102FA0007F43C8F80030BDE8F081D8F80060012800
:102FB00007DC00270BE0431CD8F80060F7D140F293
:102FC0005D4040F25E439842A8BF1846471EEFF3AB
:102FD0001185102383F31288BFF36F8FFFF762FF11
:102FE0004FF0E023224C9969D4E9002380184FF078
:102FF000000243F10003C4E900031E4B1A601E4B9C
:103000001A68831A2ED443F6982C0CFB073303F569
:103010006A531733B3FBFCF7131A0CFB0733B3F5F2
:10302000806F38BF4FF48063144A934228BF134621
:103030004FF0E022C8F80030013B90695361002353
:1030400081429361A1EB000338BF9B19D4E90012C0
:103050005B1842F10002C4E9003285F31188BFF326
:103060006F8FA0E74FF48063E2E700BFB00F00204E
:1030700028090020AC0F00202009002038A9FF00FB
:1030800038B5EFF31185102383F31288BFF36F8FE8
:10309000084B1C68084B1B68E41AFFF703FF85F315
:1030A0001188BFF36F8F43F698232044B0FBF3F0F1
:1030B00038BD00BF2809002020090020F0B50C24ED
:1030C000444304F1804404F58034059E94466268CC
:1030D000071FB242FFB238BF6660012F04F54052AD
:1030E00019D8012917D103251560A268D207FCD58C
:1030F000226804F5805582EA4C1202F0E0022A6050
:1031000022684A4002F003022A6001228A40A16834
:103110001142FCD018E04FF4006515600F4D55F8D2
:1031200020203AB16D69B5FBF2F5013505EB450597
:10313000033DFDD2226804F5805582EA4C1202F06C
:10314000E002012F2A60DBD94FF4006104F5005240
:103150001160024A666042F82030F0BDB40F0020D2
:10316000F8B5264E264F274D1644BE42B5FBF1F565
:10317000069C01D902F024FCB2FBF5F2A2F1100585
:10318000B5F5987FF6D85D1E062DF3D8651E062D81
:10319000F0D8240344EA03430468002C0EDA0468E0
:1031A00004F03F048C4209D18468C4F30B049442B8
:1031B00004D1C46804F4EE249C421DD0124D0124B5
:1031C000A8420CBF0F250E25AC40104D104E2C60B0
:1031D00005F580552C60B56834EA0505FBD1016022
:1031E0002121826000F540520432116001680029FB
:1031F000FCDAC36008231360F8BD00BF80E84BD33E
:1032000080F8A932001BB700008005400020024072
:10321000000002404FF42A62054B06491A604FF441
:103220008D72DA60044A11605A68002AFCDA70472D
:103230000080044000B0FA0000A0044030B5C4088B
:1032400000F0070080008140074804F18C0540F839
:10325000251003EB84031AB103F50053196030BD48
:1032600003F54053FAE700BF0080024010B50C4B55
:1032700003EB800253F8203002F5805483F04003C2
:1032800003F0C00323604FF48073C00000F180405E
:1032900000F5203002F540524160136010BD00BFC0
:1032A0000480034010B5074CC90004EB800354F8B8
:1032B000200041EA8201414001F00C0103F58053F6
:1032C000196010BD04800340054B03EB800002230E
:1032D00019B100F500500360704700F54050FAE75F
:1032E00004800340054A02EB800352F8202003F5D6
:1032F0008053514001F00101196070470480034080
:10330000064B03EB800253F8203002F5805283EA2B
:10331000011303F030031360704700BF04800340C3
:103320004FF0504330B4044C1D68044B002D18BFBF
:10333000234630BCFFF782BF9082024048820240A1
:10334000054B03EB8000402319B100F500500360EA
:10335000704700F54050FAE7048003404FF0E02248
:10336000044BD2F8881D0B43C2F8883D10EE3004A0
:10337000704700BF0303300038B5EFF31185102309
:1033800083F31288BFF36F8F064B9C6805F0C3FA76
:1033900085F31188BFF36F8F2046BDE83840FDF7F5
:1033A00007BE00BFDC10002038B50A4B53F82040A0
:1033B000013053F82050A54200D838BD606830B1C4
:1033C000037EDB0701D405F07BFA0834F3E72368BA
:1033D0009847FAE718980010012270B5294B03208E
:1033E00086B01A70FFF7E0FF01F004FB0420FFF73E
:1033F000DBFF254C254D2646AE4204F1300410D3A8
:1034000000F032FF204C224EAC4226D300F040FFA9
:10341000FDF784FA1F4A938923F00103938106B0D4
:1034200070BD54F80C3C059354F8103C049354F8C8
:10343000143C039354F8183C029354F81C3C019339
:1034400054F8203C009354E90A2354E90C0100F09D
:1034500017FD54F8303C5E65CDE7D4E90A23B3F19B
:10346000FF3F08BFB2F1FF3F05D052EA03012068D9
:1034700003D100F0C9FF3034C6E73146183001F0FF
:103480004FF9F8E711110020E0940010E0940010CB
:10349000238E0010B00900200023012270B586B0F1
:1034A000CDE904230F220193CDE9023214234FF416
:1034B000A0720E4D0E4E03FB00550E4906EBC016D2
:1034C000044602FB00110C4B3046009500F0D8FC7E
:1034D000337C2C7423F004033374084B013403EB66
:1034E000C423EE606B6006B070BD00BFDC1000202E
:1034F00030090020181F00208B8A001018170020A8
:10350000BFB50020FFF750FF224B83F3088800244B
:10351000F023214D214F85F82230EC772C766C7604
:10352000AC766B6A43F4E0236B62FDF70FFDFDF7A9
:103530002BFE4FF0FF331A48AB62EB6200F006FD42
:103540000120FFF731FF0220164DFFF72DFF00F09D
:10355000D3FE154B15495D61154B4FF48062059301
:1035600001232846CDE90343CDE901443B460094BD
:1035700000F086FC06462A7C284622F004022A74C3
:1035800005F00CFC2046FFF787FF3A4631462846F7
:10359000FDF7DEFD181F002000ED00E0D93300101C
:1035A000300A0020B0090020DC1000205820002044
:1035B000BE9D001038B5064C064DAC4201D300202C
:1035C00038BD2046D4E9011205F0EAF91434F4E7D5
:1035D000080600201C06002030B5054B85B0DDE94B
:1035E00008450293CDE9004505F098F905B030BDD6
:1035F000B3520010002038B5054C064DAC4200D344
:1036000038BD204605F0F0F90028F9DB1C34F5E759
:10361000EC0500200806002073B50C46EFF311817D
:10362000102585F31288BFF36F8FC5685DB12560E3
:103630002B68C360836901338361002081F31188A3
:10364000BFF36F8F11E052EA030603D16FF00B0056
:103650002560F3E7CDE900230246083000F04AFD7B
:1036600018B9034B9B685B69236002B070BD00BF53
:10367000DC1000202DE9F34104460E469DF82000A1
:1036800004F10808EFF31187102181F31288BFF3CA
:103690006F8F256AE1688D4242D22568AC4219D00D
:1036A000C5B1284605F0FCF905F1180005F052FCFB
:1036B000A26800243146686905F035FD2846EC67AC
:1036C00005F06CFB4046394600F0A8FD204602B0EC
:1036D000BDE8F081A268A8B13146E06905F023FD9C
:1036E000E369A26813446269E361934201D12369EB
:1036F000E3610020236A0133236287F31188BFF35B
:103700006F8FE4E7A1692369994208BF6369314675
:1037100008BFA361A069801AA06105F004FDE8E775
:1037200052EA03010AD00749404689684E61CDE953
:1037300000233946224600F0DDFCC8E76FF0220086
:10374000DBE700BFDC100020F7B50446084604F1B3
:103750000807EFF31186102181F31288BFF36F8FF2
:10376000216A002939D0A268A16905F0DCFCA369AF
:10377000A268256813446269A361934204BF236968
:10378000A361236AAC4203F1FF33236233D028469E
:10379000002D31D005F084F905F1180005F0DAFBB1
:1037A000A2686969E06905F0BEFCE369A268284681
:1037B00013446269E361934204BF2369E361236AAE
:1037C000013323620024EC6705F0E8FA38463146FD
:1037D00000F024FD204603B0F0BD52EA030110D0F2
:1037E000094989684861CDE90023314622463846B7
:1037F00000F080FCEFE7002086F31188BFF36F8FA5
:10380000E9E76FF02200F7E7DC1000202DE9F34133
:10381000044617461E46EFF31188102383F31288DF
:10382000BFF36F8FC368334A7BB180689168884269
:1038300019D057EA060318D188F31188BFF36F8FA8
:103840006FF00F0002B0BDE8F081916891F90E10A1
:103850000133E36093682161A36088F31188BFF3AB
:103860006F8F0020EEE72169F2E791F90E1090F9D1
:103870000E306FF07E029942A8BF19469142B8BF40
:1038800011468B422DDD05F01FF9054622464146C3
:10389000CDE90076184800F02DFC0028E1D0EFF3C8
:1038A0001186102383F31288BFF36F8FA068D0B105
:1038B000236821699C420AD04BB193F90E3099429A
:1038C000A8BF19466FF07E039942B8BF194605F0AC
:1038D000FBF840B13146084800F0A0FC6FF00A0048
:1038E000B0E70025D2E7002DF4D186F31188BFF3AD
:1038F0006F8FF3E7DC10002012110020F8B5836809
:103900000546002B3FD0234A926893423ED1C368BC
:10391000012B03D9013BC3600020F8BDEFF31187F1
:10392000102383F31288BFF36F8F0169806805F05D
:10393000CBF82C68A54207D10023C5E9023387F3F1
:103940001188BFF36F8FE7E7002CF5D0D4E9003280
:10395000002613605A60237CC4E9006623F002034A
:103960002374A66004F1180005F0F4FAAC6094F931
:103970000E3020462B61E66705F010FA39460648FE
:1039800000F04CFCC8E76FF01500C6E74FF0FF30C1
:10399000C3E700BFDC1000201211002037B511462C
:1039A000EFF31185102282F31288BFF36F8F046842
:1039B0009CB12368426823F003039442036008BF6C
:1039C00043600121204605F002F9044685F3118881
:1039D000BFF36F8F204603B030BD51EA0302F5D02C
:1039E00000F10802CDE900131046294600F082FBE1
:1039F0000028EFD1014B9B685C69EBE7DC100020ED
:103A000070B5EFF31186102383F31288BFF36F8F25
:103A10000468A0421AD0CCB1D4E90032002513606A
:103A20005A60237CC4E9005523F002032374A56087
:103A300004F1180005F08EFA2046E56705F0AEF9AE
:103A40003146BDE87040074800F0E8BBD0E90232DB
:103A50009A4218BF0133836086F31188BFF36F8FDA
:103A600070BD00BF1211002013B5EFF311811024B7
:103A700084F31288BFF36F8F846844B1013C846083
:103A800081F31188BFF36F8F002002B010BD52EA9E
:103A9000030406D181F31188BFF36F8F6FF00F001D
:103AA000F3E7CDE900230246014800F023FBECE7F1
:103AB000121100202DE9F0410546EFF31187102384
:103AC00083F31288BFF36F8F00236FF00A081E463E
:103AD0002C68A54216D0ACB1D4E9003213605A600C
:103AE000237CC4E9006623F002032374A66004F17A
:103AF000180005F02FFA2046C4F87C8005F04EF936
:103B00000123E5E70022AA602BB13946BDE8F04168
:103B1000044800F083BB87F31188BFF36F8FBDE8C3
:103B2000F08100BF121100202DE9FF41044610274B
:103B30004E4EEFF3118887F31288BFF36F8FD4F8DE
:103B40008450F5B9022104F19C0005F06DF80028BD
:103B500068D004F1940500220121284605F09FF960
:103B60000028F8D100234FF0FF3202934FF0FF33CB
:103B70004146CDE900233E4804F18C0200F00EFDE1
:103B8000D7E7D4F888202B689542C4F8843008BF62
:103B9000C4F88830D4F89C3043F00203C4F89C3059
:103BA000EB6823F0040343F00103EB606B6888F3D8
:103BB0001188BFF36F8F28469847EFF3118887F37A
:103BC0001288BFF36F8FEB68D80623F0010236D45A
:103BD000EA60EB689A0716D5306823F00203EB60C1
:103BE00088B10021036870B14268954235D10368FD
:103BF00069BB72683360824200D17360002340F871
:103C0000083BFFF7FDFED4F89C3023F00203C4F814
:103C10009C3088F31188BFF36F8FDB0589D400F0E7
:103C200073FB86E7D4F89C30D9069BD5C4F89C007A
:103C300088F31188BFF36F8F04B0BDE8F08123F0E3
:103C40001103EB6005F11000FFF7DAFEC1E70B602E
:103C50007368834208BF7160D0E723B11A680146D8
:103C600018461346BFE71A46F9E700BFFC100020CC
:103C700012110020F8B5C36804469A070F46C3F333
:103C800040062ED45B071CD40B680BB983680B600D
:103C9000E368DD0742BFA36802263B603D6858BF6A
:103CA0000126002D3CD0204B9A68D5F880309A42EE
:103CB0000AD0D5F89C30D807C3F3800214D46FF033
:103CC000120600233B6025E005F025F8D5F89C306E
:103CD0000028F0D1D907C3F3C002F0D552B15B0779
:103CE00008D46FF00F06ECE7002AFAD1C3F3C00343
:103CF000002BF6D100232360D5F8883063B9C5E9DD
:103D00002144284604F0AAFFE36843F00403E3607B
:103D10003B68A3603046F8BD1C60C5F88840F0E7FA
:103D20006FF01506CDE700BFDC100020014601480A
:103D300004F0D5BFD00A0020F0B50446002089B0B9
:103D4000C4E921000E9D04F18C00C4E9230004F1B4
:103D50009400C4E9250055B32879002840F20110E9
:103D600008BF0120C4F89C0000204FF0FF364FF040
:103D7000FF37CDE90330CDE90100CDE906672046E4
:103D80000C4B009400F0B6F855B1296811B12046EB
:103D900004F0C7FF6B791BB1A38943F00103A38132
:103DA000204600F031FBC4F8804009B0F0BD01208E
:103DB000D8E700BF293B001037B501900846EFF364
:103DC0001184102181F31288BFF36F8FC16811F045
:103DD0001E0F16D153EA020508D101A9FFF74AFFC9
:103DE00084F31188BFF36F8F03B030BD41F0080139
:103DF000C160019910308161034900F091FC0120FC
:103E0000EEE70020ECE700BF6B8C00100146014894
:103E1000FFF7D2BFD00A0020F7B50C4616461D4664
:103E20000190EFF31187102383F31288BFF36F8F94
:103E3000084604F004FF55EA060309D1204601A90B
:103E4000FFF718FF87F31188BFF36F8F03B0F0BD42
:103E5000E368324643F00803E360019B0449A36230
:103E600004F110002B4600F05BFC0120EAE700BFE4
:103E70006B8C001001460148FFF7CEBFD00A00202E
:103E80002DE9FF41984600F15803C0E916330E9B17
:103E9000002683810423D51D037425F007050D9B9F
:103EA0000D440F4683732946C0E906668660C673D3
:103EB0000446FCF73DFE0C9B073002930B9B20F061
:103EC000070001930A9B2D1A00932A464346394660
:103ED0002046FDF721F9064B66659B6884F86C6007
:103EE00003B11B6F2846236704B0BDE8F08100BF13
:103EF000DC100020F0B5002587B00595109DDDE9A8
:103F0000127604950F9D044603950E9D02950D9D16
:103F100001950C9D0095FFF7B3FFB6F1FF3F08BF79
:103F2000B7F1FF3F05D056EA070305D1204600F060
:103F30006BFA204607B0F0BD3A46334604F118004C
:103F4000014900F0EDFBF4E7238E00100123037418
:103F5000838100230367014B98607047DC100020C9
:103F60006FF00A01084A9368D967084998674B6857
:103F700043F080534B60002383F31188BFF36F8FAE
:103F80009368D86F704700BFDC10002000ED00E0A0
:103F900070B590F91020037C002A36DBD90634D1A5
:103FA0001B4C63F07F032246037452F8183FE1690B
:103FB000934207D1C0E900210860E06111E0994215
:103FC000F8D01B68002BF5D090F90E5093F90E60D5
:103FD000B542F4D0AE42F2DD5968C0E90031086064
:103FE0005860A569954200D005B9E568A3681A7CB8
:103FF000D20604D1DA897F2A01D9AA6932B1AB424B
:1040000002D0284600F00CFB656170BD6361FCE7DF
:10401000DC10002038B590F910200146002A037CFE
:1040200004DA03F07F03037404F07EFE0D4D2A468C
:1040300052F8184FAB68944200D004B9EC688B4238
:1040400007D01A7CD20604D1DA897F2A01D9A26965
:104050002AB1A34202D0204600F0E2FA23466B6167
:1040600038BD00BFDC100020B3F1FF3F08BFB2F144
:10407000FF3F03D00249183000F052BB704700BF29
:10408000238E001038B5194CA168E0690B68814295
:1040900014BF1A46002249680B605960A368E169A1
:1040A0002AB9134AC3E900210B60E3610CE093F9DC
:1040B0000E0092F90E50A84214D0854212DD5168CC
:1040C000C3E900210B605360A569094B9D4200D0F4
:1040D00005B9E568A3689D4202D0284600F0A0FA21
:1040E000656138BD9142DCD01268D9E7DC10002050
:1040F000F4100020F8B5DDE906670D4B0C46986812
:1041000011460C4A1060EFF31182102282F31288DC
:10411000BFF36F8F9D68284604F018FE284632468C
:104120003B46FFF7A1FF2046BDE8F840FFF718BF68
:10413000DC10002004110020F8B50446EFF31187CD
:10414000102383F31288BFF36F8F037C49B203F00F
:104150001F02002A0CBF0126002639D103F07F037D
:104160002D4D037404F0E0FD2A46037C817363F057
:104170007F03037452F8183F934227D1E869C4E9DA
:1041800000200460EC610FE09842F8D01B68002B1F
:10419000F5D093F90EC06145F6D08C45F4DD596831
:1041A000C4E900310C605C60AC69944200D004B991
:1041B000EC68AB689C4202D0204600F031FA6C619A
:1041C00087F31188BFF36F8F3046F8BDE869DEE7EB
:1041D0009B071ED5856804F0A7FD81732B689D425F
:1041E00009D16B68C4E900531C606C60E8E76A6839
:1041F0009342F6D01B68002BF3D093F90E20914226
:10420000F5D08A42F3DD5A68C4E9003214605C607C
:10421000D6E78173D4E700BFDC10002049B9EFF383
:10422000058030B9054B5A699B689A4201D0FFF767
:1042300097BE81F31188BFF36F8F7047DC100020A9
:10424000034648B9EFF3058232B9064A51699268CC
:10425000914201D0FFF784BE83F31188BFF36F8FC3
:10426000704700BFDC100020EFF31181102383F3AF
:104270001288BFF36F8F054B9A68D37B013BD373D2
:1042800081F31188BFF36F8F704700BFDC100020EF
:1042900070B5EFF31186102383F31288BFF36F8F8D
:1042A000144DAB68DA7B0132DA732A4652F8184FA4
:1042B000944200D004B9EC681A7CD20604D1DA89A1
:1042C0007F2A01D9A2692AB1A34202D0204600F078
:1042D000A7F923466B6186F31188BFF36F8FEFF365
:1042E0001180102383F31288BFF36F8FBDE87040F5
:1042F000FFF7A6BFDC100020024B03F11802C3E950
:1043000006227047DC10002070B5EFF311861023F1
:1043100083F31288BFF36F8F1B4CA168E0690B68B1
:10432000814214BF1A46002249680B605960A36895
:10433000E1692AB9154AC3E900210B60E3610CE089
:1043400093F90E0092F90E50A84218D0854216DD5E
:104350005168C3E900210B605360A5690B4B9D4276
:1043600000D005B9E568A3689D4202D0284600F058
:1043700057F965613046BDE87040FFF7F1BD8A42EC
:10438000D8D01268D5E700BFDC100020F410002060
:10439000F8B550EA010306460C4603D1FFF7B4FF17
:1043A0000020F8BDEFF31187102383F31288BFF3C9
:1043B0006F8F124D124BA8681860FFF72BFEA8688C
:1043C000234632460F49183000F0AAF9AA6804467D
:1043D000137C384643F004031374FFF7C1FDAB6848
:1043E000D3E90A23B3F1004F08BF002AD8D104F063
:1043F000D9FD201A20EAE070D3E700BFDC100020CE
:1044000004110020238E001038B50446EFF3118507
:10441000102383F31288BFF36F8F037C5B070FD5E4
:10442000183004F097FD237C204623F00403237406
:10443000FFF7AEFD2946BDE838400448FFF7EEBE61
:1044400085F31188BFF36F8F38BD00BF12110020B4
:10445000014B9868704700BFDC1000202DE9F8433D
:1044600004468789EFF31185102383F31288BFF385
:104470006F8F037C190705D585F31188BFF36F8F04
:10448000BDE8F883D90943F008025DD10274A3683E
:1044900013B1204604F050FC04F1180004F05AFD5A
:1044A000A66D04F15808B04511D04FF0000976B15F
:1044B000304604F041FC06F1180004F04BFD304694
:1044C000C6F87C90FFF764FDA66DB045EFD1DFF82C
:1044D000C080D8F808309C423ED1EFF30589B9F18D
:1044E000000918BF4FF00109D8F81860294A964210
:1044F00000D00EB9D8F80C60B34202D0304600F0BC
:104500008FF82046C8F8146001F043FAB9F1000FA3
:1045100002D02148FFF71AFDD8F808309C4231D16B
:10452000EFF3058373BBA289D20718D42846FFF79F
:1045300017FDFB07A4D5002383F31188BFF36F8F0A
:104540000423184602DF9BE703F07F0343F00803D0
:10455000037404F0E9FB9AE74FF00009C4E785F320
:104560001188BFF36F8F83F31188BFF36F8F04231C
:10457000184602DFEFF31180102383F31288BFF394
:104580006F8FD4E785F31188BFF36F8FD1E700BF3A
:10459000DC100020F4100020300A0020D3B5DDE943
:1045A0000667089CCDE90067FFF7A4FD1CB1034B2B
:1045B0009B685B69236002B0D0BD00BFDC100020A7
:1045C000027C034612F01F0210D10A4988420DD026
:1045D0000949086868B1D9897F2909D893F90E205B
:1045E000064B1B689A42B8BF0020704700207047F6
:1045F00010467047300900202403002008110020D5
:104600000122044BC01A044BC0105843034B1A54E8
:10461000704700BFB00A0020ABAAAAAA121100205E
:1046200070B50D4B0D4D1E7CFFF7CAFF06EB460320
:1046300005EBC3050446284604F08CFC0022084B19
:104640009A553CB1621E2846BDE870400549D31713
:1046500000F066B870BD00BFDC100020B00A00207A
:10466000121100200146001038B5EFF31185102318
:1046700083F31288BFF36F8F0F4B104A9C6810684A
:10468000A04206D1FFF7CCFF85F31188BFF36F8FEF
:1046900038BD00211B7C1160094AD35C002BF3D08C
:1046A0002046FFF78DFF0028EED0237CDB0601D1EA
:1046B000FFF7E8FC2046E5E7DC10002004110020AD
:1046C00012110020024B1868984208BF0020704762
:1046D00028030020034B1B680BB9FEF7D1BC002058
:1046E000704700BF0C11002030B570B10B4B5B68F8
:1046F00098420AD0036843B1D3E90421D0E90445C4
:10470000121941EB0501C3E90421D0E9003213601D
:104710005A600023C0E9003330BD00BF28030020E9
:10472000B3F1FF3F08BFB2F1FF3F2DE9F84F044658
:10473000994615461F467AD08160EFF31188102301
:1047400083F31288BFF36F8FB9F1000FDFF8E4A095
:1047500020DBFFF7BFFFDAE90027013549F1000947
:104760002D1849EBE07306464FF00109C4E90453E4
:10477000AD1843EB0707FFF7A5FF0346DFF8B8E0E6
:10478000DEF804A0EBB9C4E900EACAF80040CEF8AC
:10479000044028E06FF00103DAE900125B1A4FF0E1
:1047A000FF3161EB02025B1B62EB0902012B72F12C
:1047B0000001BCBF012300224FF00009C0E9043210
:1047C000D9E7D3E9041CD4E904208A4270EB0C0B2E
:1047D00024DA891A5A686CEB0000C3E90410C4E9B2
:1047E000003214605C60FFF76DFF84420ED1134B02
:1047F0001B685BB9B9F1000F02D1FFF76BFF0646EA
:10480000304604F090FB0021FEF7BCFB88F31188D2
:10481000BFF36F8F28463946BDE8F88F521A60EB18
:104820000C009A45C4E90420ADD01B68AAE7002516
:104830002F46EFE7C80A0020280300200C110020B3
:104840002DE9F047EFF31185102383F31288BFF3AE
:104850006F8FDFF8A0900026C9F800000027FFF74F
:1048600031FFDFF89480D9F80030D8E900ECD9178F
:1048700050B1D0E90442A34271EB020A1BDAE41AF8
:1048800062EB0102C0E90442002413EB0E034CEB7F
:1048900001012046C8E90031C9F8004004F043FB9B
:1048A0002146FEF76FFB85F31188BFF36F8FBDE8DC
:1048B000F047FFF7D9BE14EB0E024CEBE473C0E9EE
:1048C0000467C8E90023FFF70FFF85F31188BFF3E2
:1048D0006F8F83689847EFF31185102383F3128855
:1048E000BFF36F8FD9F800301B1BC9F80030FFF7FA
:1048F000E9FEB8E70C110020C80A002010B5EFF35C
:104900001184102383F31288BFF36F8FFFF7E2FE49
:104910000346054AD2E90001181841EBE37184F31C
:104920001188BFF36F8F10BDC80A00202DE9F04336
:104930004FF0000985B00546CDF8049000F10C0752
:10494000EFF31188102383F31288BFF36F8F83680E
:10495000594003EA02060A4053400E4901AACDE934
:10496000023904F0BEFA019C3CB12046C4F87C90A8
:104970000021246E04F032FAF6E7DDE9023223EA80
:10498000020338464146AB60FFF748FC304605B0AD
:10499000BDE8F083BF900010F8B507460C461646F8
:1049A00004F0B9F908B10020F8BD0D4B9B681D6FEC
:1049B000002DF8D0221DF6D2EFF31184102383F3DB
:1049C0001288BFF36F8F284647F00401B04784F385
:1049D0001188BFF36F8F0028E5D040F8045BE3E750
:1049E000DC1000200146024A0020FFF7D5BF00BFBF
:1049F000AD520010014800F085BD00BFC39D0010FE
:104A000007B5074B4FF48062009306494FF0FF3320
:104A10000548FFF791F9002003B05DF804FB00BFE3
:104A20003098001058240020D00A00202DE9F04FC3
:104A300043688DB015468046029383789A0740F10B
:104A40000D8100240E78002E00F00A81252E0BD057
:104A50004B1C0393013441463046029B9847002883
:104A6000C0F2F6800399EDE74E788B1C252E039358
:104A7000F0D00027B946BB46BBF11F0F38D8A6F1CE
:104A80002003102B0AD8DFE803F02A0909300909AE
:104A9000092109090928092D09091F00A6F1300378
:104AA000092B33D92A2E37D11BF0400F55F8043B80
:104AB00040F08280002BA7BF4BF0200B9946C3F13A
:104AC00000094BF0280B01E04BF0010B039B13F89E
:104AD000016B0393002ECFD130E04BF0020B4BF073
:104AE000040BF3E74BF0080BF0E74BF0100BEDE78E
:104AF000BBF17F0F19D8A6F13003092BD2D81BF0D8
:104B0000400F03D00A2101FB0737DFE70A214BF0F2
:104B1000200B01FB0939D9E72E2E06D11BF0400FDF
:104B200040F09E804BF0400BD0E76C2E31D02BD85C
:104B3000682E36D06A2E3CD04C2E3AD0002F46F04C
:104B40002003B8BF2BF04002A3F16501BCBF0027D2
:104B50001FFA82FB022901D9612B2FD107350727C4
:104B6000DFF8ACA225F0070508351BF0080F66D06A
:104B70000AEB070B56465E4563D1A4EB0A0AA9EB84
:104B8000070906EB0A026FE1742E9FD07A2E9DD0A2
:104B9000D4E71BF0800F18BF4BF4007B4BF0800B69
:104BA00094E71BF4807F18BF4BF4007B4BF4807BB1
:104BB0008CE74BF4207B89E71F4687E7A6F163016A
:104BC000122900F2F080DFE811F013004F00EE0030
:104BD000EE00EE00EE004F00EE00EE00EE00EE0004
:104BE000EE00FE00E900EE00EE001B00EE00AF005C
:104BF00055F8043B01270DF1180A8DF81830B4E779
:104C000055F804AB834BBAF1000F08BF9A461BF06E
:104C1000400F504614BF39464FF0FF3104F098FA68
:104C20000746A2E741462020029B984700280FDB59
:104C3000013EB742F6D34C44B146A41B98E74E461A
:104C4000F7E7414616F8010B029B9847002892DAD5
:104C500098F8023043F0040388F802304FF0FF3434
:104C600020460DB0BDE8F08F1BF0800F34D01BF450
:104C7000007F2CD0073525F00705AA4669685AF849
:104C8000080B2BF010050029ADB237DA404245F48D
:104C9000806561EB41010DF1180B0A235A4604F0BF
:104CA00063FAA0EB0B0301936B0662D5019B25F021
:104CB00001019F4289B240F3A180002E00F099804B
:104CC00015F0100240F09C80BB460D4623E0AA463A
:104CD0005AF8040BC117D4E7AA461BF4807F5AF890
:104CE000041B01D10846F5E71BF4007F19BF48B249
:104CF00041F3C01108B241F3C031C2E750EA0103E9
:104D0000C9D11BF0400FC6D0002FC4D12BF0110227
:104D1000BB46019795B240F2064115EA01021CBF5D
:104D20000BF1010B00222CE02BF010020A231FFADA
:104D300082FB1BF0800C49D01BF4007115BF0735B6
:104D4000AA4625F007055AF8040B1EBFAA46696853
:104D50005AF8080B50EA010545D12BF016051BF057
:104D6000400FADB242D0002F40D12BF01702019777
:104D700095B215F0100248D0019B002E42D103F1EC
:104D8000010B29075AD4EB0706D5D9456FDDA9EBEE
:104D90000B030199CB465F185B4649E04BF0100BC3
:104DA00010237826C5E7782B04D1C6F1780343F0A9
:104DB0001003BEE741462520029B98470028FFF6D6
:104DC00047AF023447E608230026B2E7AA461BF4A1
:104DD00080715AF8040BBDD01BF400711ABFC0B229
:104DE000614680B2B6E72BF0060295B20DF1180BC2
:104DF00054E725F01105BB46ADB28CE70D46B8E788
:104E00003B460D4603F1020BBBE7DDF804B082E739
:104E10000E9E0010079E0010CDE90432414620206E
:104E2000029B98470028FFF613AF049B059A0133B5
:104E30009945F1DCA4EB0B019B46CC180AB3414623
:104E40003020029B98470028FFF602AF8EB901344C
:104E50002744391B019B994224DC1D4655BB019A0E
:104E6000A9EB0B09554622441446914433E0019FB7
:104E700092E7023441463046029B98470028E7DA21
:104E8000E6E640F206410D42E2D015F0020F04F1D1
:104E90000104414614BF2B20202015F4806F18BF59
:104EA0002D20E9E741463020029B01349847002835
:104EB000CFDACDE606AB013D4146585D029B9847EF
:104EC0000028CBDAC4E641462020029B01349847F3
:104ED0000028FFF6BDAEA9EB0403002BF3DCC1E50F
:104EE0007047836800EBC101B3F5004F2CBF51F848
:104EF000220031F81200704700EBC1018068B0F564
:104F0000004F2CBF41F8223021F8123070470122A7
:104F100008B5FFF7E6FFD04008BD836800EBC1018C
:104F2000B3F5004F08D34B681AB143F001034B604F
:104F3000704723F00103FAE74B881AB143F00103ED
:104F40004B80704723F00103FAE753000122FFF77B
:104F5000D3BF8368B3F5004F34BF04230823C91AB5
:104F6000081AC00870478368481CB3F5004F34BF67
:104F7000042308230833A0EBD300B0FA80F0C0F17B
:104F80001F0070472DE9F041174603220E460446E4
:104F9000FFF7A7FF8642054607F104080AD1012260
:104FA000E368BA4023EA0203E360002344F82830B0
:104FB000BDE8F081314602222046FFF792FF064607
:104FC0002B4601460322204644F82850FFF794FF61
:104FD000334629462046BDE8F0410222FFF78CBF48
:104FE00070B50D4686680446FFF791FFB6F5004F91
:104FF000014601D3012809D02046FFF7B4FF294616
:1050000002462046BDE87040FFF7BCBF70BD2DE9E9
:10501000F0470546FFF7A7FF05EB800ADAF8109086
:1050200088460646B9F1000F1BD00327DAF8104076
:1050300028462146FFF76BFF404507D332462146FD
:105040002846FFF79FFF2046BDE8F0870322214650
:105050002846FFF746FF013FCAF8100001D08145FE
:10506000E4D14FF0FF34EB680136B4401C40EAD085
:1050700094FAA4F2B2FA82F2131D55F82340DEE747
:105080002DE9F04114460E460546FFF740FFA4EB1C
:105090000608371B0744424631462846FFF755FFAE
:1050A0003A4621462846FFF750FF43460022214654
:1050B0002846FFF721FF21462846FFF728FF3B46F9
:1050C000211800222846BDE8F041FFF715BF2DE961
:1050D000F041164604460F46FFF719FF31460546D4
:1050E0002046FFF714FF05442A4639462046FFF7BD
:1050F0002CFF31462046FFF70AFF2B4631180022CD
:105100002046BDE8F041FFF7F7BE2DE9F0410D461E
:1051100086680446FFF7FBFEB6F5004F014601D353
:10512000012832D02046FFF71EFF04EB80010E69F4
:1051300096B90122E36882401343E36002220D61C5
:105140002B4629462046FFF7D7FE03222946204654
:10515000BDE8F041FFF7D0BE022231462046FFF7FE
:10516000C0FE0746034629462046FFF7C5FE032238
:10517000334629462046FFF7BFFE39462B462046D8
:10518000FFF7BAFE02223146E1E7BDE8F081F8B54B
:105190000C460546FFF7BBFE26180122314628467D
:1051A000FFF79FFEC3070CD431462846FFF718FFD0
:1051B00021462846FFF7ABFE214622182846FFF776
:1051C00086FF002221462846FFF78BFE271A012280
:1051D00039462846FFF785FE10EA020613D1394604
:1051E0002846FFF7FDFE214632462846FFF779FEA6
:1051F0002246211A2846FFF76AFF214632462846F2
:10520000FFF76FFE241A21462846BDE8F840FFF755
:105210007CBF38B571B1056800222846FFF799FEBA
:10522000044601462846FFF778FE2146BDE838408F
:10523000FFF7ADBF38BD70B5056809B9002070BD76
:10524000AB6801F00704B3F5004F2CBF082204221D
:1052500007341444E40804EBD1049C4228BF1C46E4
:1052600028462146FFF7D3FE06460028E6D0014631
:105270002846FFF74CFEA04209D93444314628465F
:105280002246FFF7FDFE21462846FFF73EFF28464F
:1052900001223146FFF741FEAB68B3F5004F34BF42
:1052A0000423082303EBC6031844C8E71146FFF79D
:1052B000C2BF2DE9F84306681446B26801F1FF3910
:1052C000B2F5004F34BF0423082319EA01090F4641
:1052D0000BD0494239408B424F4628BF0B46894686
:1052E00054B900252846BDE8F8839942F8D82146EC
:1052F000BDE8F843FFF79FBFB2F5004F2CBF08256C
:105300000425FB1AE10804F0070001EBD301073084
:1053100003F0070303442B4401EBD301914228BF60
:1053200011463046FFF773FE80460028D9D0B36897
:1053300009EBC005B3F5004F34BF042308231D4417
:1053400035447B1E1D44B5FBF7F57D43A5EB0905F0
:1053500029463046FFF7FDFD2C44073424F00704AE
:10536000A41B804507464FEAE40408D202464146A2
:105370003046FFF785FE41463046FFF7C6FE394608
:105380003046FFF7C4FD3844844208D239463046DF
:105390002246FFF775FE21463046FFF7B6FE012292
:1053A00039463046FFF7B9FD9CE7B2F5802F2CBF98
:1053B000082304232DE9F0410026D21A8C18CD1DB4
:1053C00025F0070524F00704641BE4080560214666
:1053D0002846AC60EE60FFF7C6FD421D920001302A
:1053E00002F107074FEAD7073146A2F1100205F193
:1053F0001000B8BF324603F0A3FE3A4631462846B5
:10540000FFF7A3FD3346324631462846FFF774FDC9
:10541000A4EB0708284631460122FFF77EFD4246ED
:105420003946FFF792FD3B46324639462846FFF79C
:1054300063FD21462846FFF788FD43463246214654
:105440002846FFF759FD214628460122FFF765FD52
:105450003946BDE8F041FFF758BE2DE9F041054659
:1054600090460E4601B3036899421FD80024274690
:1054700058F82730AA68934213D39B1A2A7943FA23
:1054800002F22B689A420CD20121E86800F056F92A
:10549000002818BF04460137BE42E9D12046BDE8C6
:1054A000F0816FF00D04F6E70C46F7E76FF0150496
:1054B000F4E7F7B5044617460E4611B9002003B0CD
:1054C000F0BD03688B4218D300250121E06801AAD2
:1054D00000F0D0F850B92379019A9A40A3689B183C
:1054E00004D047F825300135B542EED1AE42E5D9BA
:1054F0003A4629462046FFF7B0FF6FF00B00DEE783
:10550000002070470FB407B504A951F8040B0191AE
:10551000FBF73AFA03B05DF804EB04B07047013AC8
:1055200001F01F030A4430B54C090121550902F06E
:105530001F02C26001FA02F2836001FA03F3511EF6
:105540005B420A43AC42036108BF134004604560FC
:10555000426108BF036130BDF0B587B004460C98C6
:105560001D4610B96846FFF7DAFF01684768A3686F
:10557000B94253F82120066908D125B1324343F8D6
:10558000212007B0F0BD22EA0602F8E7B5B13243A8
:1055900043F821204168A268456952F821302B4325
:1055A00042F821304FF0FF310368013342689A42DC
:1055B000E7D9A26842F823100133F7E722EA06028E
:1055C00043F82120A2684168466952F8213023EA55
:1055D000060342F821300268436801329342D0D971
:1055E000A36843F82250F7E7F8B50646DDE906055B
:1055F0001C46FFF794FFD0E900139942B668026990
:105600000BD156F8213004B9DB4332EA030023D032
:1056100022EA030215BB0020F8BD56F8217004B938
:10562000FF4332EA070C02D022EA0702F2E756F8FB
:10563000237004B9FF43426932EA070009D01946D2
:1056400022EA0702E6E756F8212004B1D243002AF5
:10565000E0D101318B42F6D80120DDE792FAA2F3C6
:10566000002AB3FA83F308BF4FF0FF3303EB411373
:105670002B60D0E72DE9F04F05460E4690468BB0E3
:10568000EFF31189102383F31288BFF36F8F002A81
:1056900051D000294FD002688A424CD3202A0CD91D
:1056A0000021406888424FEA411429D0AB6853F882
:1056B00021305F1C1DD10131F4E7806800230068B0
:1056C00000F087F8041E08DA6FF01B0089F31188D8
:1056D000BFF36F8F0BB0BDE8F08F0123A968B34013
:1056E0000A68013BA3401A430A600020C8F8004042
:1056F000ECE72BB1DB4393FAA3F3B3FA83F31C4437
:10570000A2EB060A0DF10C0B04AF5445DCD80023C4
:10571000324621462846CDE9007BFFF765FF38B1C8
:1057200001233246214628460097FFF715FFDCE7A4
:10573000039C0134E9E76FF01500C7E72DE9F0435A
:1057400090464A1E05460C4689B04244EFF3118646
:10575000102383F31288BFF36F8F002936D00368BC
:105760008B4233D3434531D993422FD9202B18D8BC
:1057700001238B408168013B03FA08F20B6803EABE
:1057800002009A4308D06FF00D0086F31188BFF332
:105790006F8F09B0BDE8F08323EA00030B6000209F
:1057A000F3E74FF0000902AF0A4601234146CDF866
:1057B00004900097FFF718FF0028E4D04B462246DC
:1057C000414628460097FFF7C7FEE8E76FF015004F
:1057D000DBE71F2A2DE9F0419EBF4FF0FF3404FAAA
:1057E00002F21043C2434FF0FF304FF0010C074666
:1057F0008646DAB1B2FA82F5C5F11F080CFA08F450
:10580000013C94431DBFB4FA84F4C4F11F06A8EB15
:105810000605C5F120051BBF0EFA06F6C4F12008E7
:10582000A04622EA06048D4202D14046BDE8F0813E
:105830001BB18D42F9D82246DBE78D42FBD3AF4244
:1058400084BF40462F46F6E770B506460C88888828
:10585000241A3069A4B2844285B224BF641BA4B266
:105860002D1BA8B2984228BF184633682344136002
:105870000B8803440B8070BD70B4838985880669EA
:10588000ED1AADB2731B934228BF134670BC0A4693
:10589000011DFFF7D9BF70B40E460146C58831F827
:1058A0000A3FEC1AA3B2934228BF1346324670BC9B
:1058B000FFF7CABF10B54B880C88E41AA4B2944213
:1058C0000ED31A4492B28B884A800A800069D21A99
:1058D00092B2824201D2002010BD03448B80FAE7CD
:1058E0006FF01500F8E72DE9F34106460F4615461F
:1058F0004FF000082A46304601A9FFF7BDFF0446D5
:1059000040B102463946019803F00DFC2D1BA0441E
:105910002744EFD142463046311DFFF7CBFF4046CA
:1059200002B0BDE8F0812DE9F34107460E46154669
:105930004FF000082A46384601A9FFF7ACFF04469D
:1059400048B12EB102460199304603F0ECFB2644E3
:105950002D1BA044EED14246384607F10A01FFF75D
:10596000A9FF404602B0BDE8F081704703F0E8BBF4
:1059700003F0D9BB01460068FBF7A6B808B5FBF7F2
:10598000D3F8BDE80840FBF7F3B800210120FBF78E
:105990009BB86FF08500704761B662B680F31188DE
:1059A000BFF36F8F704772B6002383F31188BFF384
:1059B0006F8FBFF34F8F30BF62B6BFF36F8F7047EB
:1059C00008B5FBF71FFC08B5FBF708FC002008BD75
:1059D000426810B52AB10B461C465B68002BFBD110
:1059E0006260416010BD10B5044620B908460B7ACC
:1059F00001330B7210BD034618465B68002BFBD1C8
:105A0000FFF7E6FF2046F5E710B508B14B684360A5
:105A100000234C6808464B60FBF7B8FC204610BDDD
:105A20008388026819448180D018704730B4848814
:105A30000568A3188380281930BC03F074BB10B527
:105A4000838802685C1C8480D154D01810BD838880
:105A500030B502689D1C8580D418D154090A617044
:105A600030BD83885B1A9BB28380006818447047FE
:105A700003468288521A8280006808441860704782
:105A80008388C2888168D21A03685B1AD01A70476B
:105A9000FDF764BC4FF0FF324FF0FF330430FDF7E9
:105AA000B5BEFDF72BBF90F87000C0F341107047F2
:105AB000F8B504461E460D461746FFF7EBFF94F86F
:105AC00070309B0715D425B1012D10D06FF015054E
:105AD00008E0616F0029F9D000259DF818300F719A
